{
  "abi": [
    {
      "type": "constructor",
      "inputs": [
        {
          "name": "_paymentTokenAddress",
          "type": "address",
          "internalType": "address"
        }
      ],
      "stateMutability": "nonpayable"
    },
    {
      "type": "function",
      "name": "cancelOrder",
      "inputs": [
        {
          "name": "_orderId",
          "type": "uint256",
          "internalType": "uint256"
        }
      ],
      "outputs": [],
      "stateMutability": "nonpayable"
    },
    {
      "type": "function",
      "name": "confirmOrder",
      "inputs": [
        {
          "name": "_orderId",
          "type": "uint256",
          "internalType": "uint256"
        }
      ],
      "outputs": [],
      "stateMutability": "nonpayable"
    },
    {
      "type": "function",
      "name": "crops",
      "inputs": [
        {
          "name": "",
          "type": "uint256",
          "internalType": "uint256"
        }
      ],
      "outputs": [
        {
          "name": "id",
          "type": "uint256",
          "internalType": "uint256"
        },
        {
          "name": "name",
          "type": "string",
          "internalType": "string"
        },
        {
          "name": "description",
          "type": "string",
          "internalType": "string"
        },
        {
          "name": "price",
          "type": "uint256",
          "internalType": "uint256"
        },
        {
          "name": "quantity",
          "type": "uint256",
          "internalType": "uint256"
        },
        {
          "name": "imageUrl",
          "type": "string",
          "internalType": "string"
        },
        {
          "name": "seller",
          "type": "address",
          "internalType": "address"
        },
        {
          "name": "isListed",
          "type": "bool",
          "internalType": "bool"
        }
      ],
      "stateMutability": "view"
    },
    {
      "type": "function",
      "name": "getCrop",
      "inputs": [
        {
          "name": "_cropId",
          "type": "uint256",
          "internalType": "uint256"
        }
      ],
      "outputs": [
        {
          "name": "",
          "type": "tuple",
          "internalType": "struct ICropTrust.Crop",
          "components": [
            {
              "name": "id",
              "type": "uint256",
              "internalType": "uint256"
            },
            {
              "name": "name",
              "type": "string",
              "internalType": "string"
            },
            {
              "name": "description",
              "type": "string",
              "internalType": "string"
            },
            {
              "name": "price",
              "type": "uint256",
              "internalType": "uint256"
            },
            {
              "name": "quantity",
              "type": "uint256",
              "internalType": "uint256"
            },
            {
              "name": "imageUrl",
              "type": "string",
              "internalType": "string"
            },
            {
              "name": "seller",
              "type": "address",
              "internalType": "address"
            },
            {
              "name": "isListed",
              "type": "bool",
              "internalType": "bool"
            }
          ]
        }
      ],
      "stateMutability": "view"
    },
    {
      "type": "function",
      "name": "getOrder",
      "inputs": [
        {
          "name": "_orderId",
          "type": "uint256",
          "internalType": "uint256"
        }
      ],
      "outputs": [
        {
          "name": "",
          "type": "tuple",
          "internalType": "struct ICropTrust.Order",
          "components": [
            {
              "name": "id",
              "type": "uint256",
              "internalType": "uint256"
            },
            {
              "name": "cropId",
              "type": "uint256",
              "internalType": "uint256"
            },
            {
              "name": "quantity",
              "type": "uint256",
              "internalType": "uint256"
            },
            {
              "name": "totalPrice",
              "type": "uint256",
              "internalType": "uint256"
            },
            {
              "name": "buyer",
              "type": "address",
              "internalType": "address"
            },
            {
              "name": "seller",
              "type": "address",
              "internalType": "address"
            },
            {
              "name": "status",
              "type": "uint8",
              "internalType": "enum ICropTrust.Status"
            }
          ]
        }
      ],
      "stateMutability": "view"
    },
    {
      "type": "function",
      "name": "listCrop",
      "inputs": [
        {
          "name": "_name",
          "type": "string",
          "internalType": "string"
        },
        {
          "name": "_description",
          "type": "string",
          "internalType": "string"
        },
        {
          "name": "_price",
          "type": "uint256",
          "internalType": "uint256"
        },
        {
          "name": "_quantity",
          "type": "uint256",
          "internalType": "uint256"
        },
        {
          "name": "_imageUrl",
          "type": "string",
          "internalType": "string"
        }
      ],
      "outputs": [],
      "stateMutability": "nonpayable"
    },
    {
      "type": "function",
      "name": "orders",
      "inputs": [
        {
          "name": "",
          "type": "uint256",
          "internalType": "uint256"
        }
      ],
      "outputs": [
        {
          "name": "id",
          "type": "uint256",
          "internalType": "uint256"
        },
        {
          "name": "cropId",
          "type": "uint256",
          "internalType": "uint256"
        },
        {
          "name": "quantity",
          "type": "uint256",
          "internalType": "uint256"
        },
        {
          "name": "totalPrice",
          "type": "uint256",
          "internalType": "uint256"
        },
        {
          "name": "buyer",
          "type": "address",
          "internalType": "address"
        },
        {
          "name": "seller",
          "type": "address",
          "internalType": "address"
        },
        {
          "name": "status",
          "type": "uint8",
          "internalType": "enum ICropTrust.Status"
        }
      ],
      "stateMutability": "view"
    },
    {
      "type": "function",
      "name": "owner",
      "inputs": [],
      "outputs": [
        {
          "name": "",
          "type": "address",
          "internalType": "address"
        }
      ],
      "stateMutability": "view"
    },
    {
      "type": "function",
      "name": "paymentToken",
      "inputs": [],
      "outputs": [
        {
          "name": "",
          "type": "address",
          "internalType": "contract IERC20"
        }
      ],
      "stateMutability": "view"
    },
    {
      "type": "function",
      "name": "purchaseCrop",
      "inputs": [
        {
          "name": "_cropId",
          "type": "uint256",
          "internalType": "uint256"
        },
        {
          "name": "_quantity",
          "type": "uint256",
          "internalType": "uint256"
        }
      ],
      "outputs": [],
      "stateMutability": "nonpayable"
    },
    {
      "type": "function",
      "name": "sellerFunds",
      "inputs": [
        {
          "name": "",
          "type": "address",
          "internalType": "address"
        }
      ],
      "outputs": [
        {
          "name": "",
          "type": "uint256",
          "internalType": "uint256"
        }
      ],
      "stateMutability": "view"
    },
    {
      "type": "function",
      "name": "totalCrops",
      "inputs": [],
      "outputs": [
        {
          "name": "",
          "type": "uint256",
          "internalType": "uint256"
        }
      ],
      "stateMutability": "view"
    },
    {
      "type": "function",
      "name": "withdrawFunds",
      "inputs": [],
      "outputs": [],
      "stateMutability": "nonpayable"
    },
    {
      "type": "event",
      "name": "CropListed",
      "inputs": [
        {
          "name": "id",
          "type": "uint256",
          "indexed": false,
          "internalType": "uint256"
        },
        {
          "name": "name",
          "type": "string",
          "indexed": false,
          "internalType": "string"
        },
        {
          "name": "price",
          "type": "uint256",
          "indexed": false,
          "internalType": "uint256"
        },
        {
          "name": "quantity",
          "type": "uint256",
          "indexed": false,
          "internalType": "uint256"
        },
        {
          "name": "seller",
          "type": "address",
          "indexed": true,
          "internalType": "address"
        }
      ],
      "anonymous": false
    },
    {
      "type": "event",
      "name": "CropPurchased",
      "inputs": [
        {
          "name": "orderId",
          "type": "uint256",
          "indexed": false,
          "internalType": "uint256"
        },
        {
          "name": "cropId",
          "type": "uint256",
          "indexed": false,
          "internalType": "uint256"
        },
        {
          "name": "quantity",
          "type": "uint256",
          "indexed": false,
          "internalType": "uint256"
        },
        {
          "name": "totalPrice",
          "type": "uint256",
          "indexed": false,
          "internalType": "uint256"
        },
        {
          "name": "buyer",
          "type": "address",
          "indexed": true,
          "internalType": "address"
        }
      ],
      "anonymous": false
    },
    {
      "type": "event",
      "name": "FundsWithdrawn",
      "inputs": [
        {
          "name": "recipient",
          "type": "address",
          "indexed": true,
          "internalType": "address"
        },
        {
          "name": "amount",
          "type": "uint256",
          "indexed": false,
          "internalType": "uint256"
        }
      ],
      "anonymous": false
    },
    {
      "type": "event",
      "name": "OrderCancelled",
      "inputs": [
        {
          "name": "orderId",
          "type": "uint256",
          "indexed": false,
          "internalType": "uint256"
        },
        {
          "name": "canceller",
          "type": "address",
          "indexed": true,
          "internalType": "address"
        }
      ],
      "anonymous": false
    },
    {
      "type": "event",
      "name": "OrderConfirmed",
      "inputs": [
        {
          "name": "orderId",
          "type": "uint256",
          "indexed": false,
          "internalType": "uint256"
        },
        {
          "name": "seller",
          "type": "address",
          "indexed": true,
          "internalType": "address"
        },
        {
          "name": "amount",
          "type": "uint256",
          "indexed": false,
          "internalType": "uint256"
        }
      ],
      "anonymous": false
    },
    {
      "type": "error",
      "name": "CropNotListed",
      "inputs": []
    },
    {
      "type": "error",
      "name": "InsufficientAllowance",
      "inputs": []
    },
    {
      "type": "error",
      "name": "NoFundsToWithdraw",
      "inputs": []
    },
    {
      "type": "error",
      "name": "NotEnoughQuantity",
      "inputs": []
    },
    {
      "type": "error",
      "name": "OnlyBuyer",
      "inputs": []
    },
    {
      "type": "error",
      "name": "OnlyBuyerOrSeller",
      "inputs": []
    },
    {
      "type": "error",
      "name": "OnlySeller",
      "inputs": []
    },
    {
      "type": "error",
      "name": "OrderNotCancellable",
      "inputs": []
    },
    {
      "type": "error",
      "name": "OrderNotPending",
      "inputs": []
    },
    {
      "type": "error",
      "name": "PriceMustBeGreaterThanZero",
      "inputs": []
    },
    {
      "type": "error",
      "name": "QuantityMustBeGreaterThanZero",
      "inputs": []
    },
    {
      "type": "error",
      "name": "ReentrancyGuardReentrantCall",
      "inputs": []
    },
    {
      "type": "error",
      "name": "TransferFailed",
      "inputs": []
    }
  ],
  "bytecode": {
    "object": "0x608060405234801561000f575f5ffd5b506040516128c83803806128c88339818101604052810190610031919061016b565b600161004f6100446100db60201b60201c565b61010460201b60201c565b5f01819055503360025f6101000a81548173ffffffffffffffffffffffffffffffffffffffff021916908373ffffffffffffffffffffffffffffffffffffffff1602179055508060035f6101000a81548173ffffffffffffffffffffffffffffffffffffffff021916908373ffffffffffffffffffffffffffffffffffffffff16021790555050610196565b5f7f9b779b17422d0df92223018b32b4d1fa46e071723d6817e2486d003becc55f005f1b905090565b5f819050919050565b5f5ffd5b5f73ffffffffffffffffffffffffffffffffffffffff82169050919050565b5f61013a82610111565b9050919050565b61014a81610130565b8114610154575f5ffd5b50565b5f8151905061016581610141565b92915050565b5f602082840312156101805761017f61010d565b5b5f61018d84828501610157565b91505092915050565b612725806101a35f395ff3fe608060405234801561000f575f5ffd5b50600436106100cd575f3560e01c80638bc7fa9c1161008a578063d09ef24111610064578063d09ef2411461020a578063e20d74791461023a578063f61f095014610256578063f9ff091e14610272576100cd565b80638bc7fa9c146101865780638da5cb5b146101b6578063a85c38ef146101d4576100cd565b806324600fc3146100d15780632acc7847146100db5780633013ce29146100f9578063514fcac71461011757806370c9f1a5146101335780638ac7d79c1461016a575b5f5ffd5b6100d96102a2565b005b6100e3610496565b6040516100f09190611972565b60405180910390f35b61010161049e565b60405161010e9190611a05565b60405180910390f35b610131600480360381019061012c9190611a59565b6104c3565b005b61014d60048036038101906101489190611a59565b6107e9565b604051610161989796959493929190611b2e565b60405180910390f35b610184600480360381019061017f9190611a59565b6109eb565b005b6101a0600480360381019061019b9190611a59565b610c27565b6040516101ad9190611cef565b60405180910390f35b6101be610e90565b6040516101cb9190611d0f565b60405180910390f35b6101ee60048036038101906101e99190611a59565b610eb5565b6040516102019796959493929190611d9b565b60405180910390f35b610224600480360381019061021f9190611a59565b610f3e565b6040516102319190611ea3565b60405180910390f35b610254600480360381019061024f9190611fe8565b611075565b005b610270600480360381019061026b91906120b3565b611300565b005b61028c6004803603810190610287919061211b565b6117ae565b6040516102999190611972565b60405180910390f35b6102aa6117c3565b5f60065f3373ffffffffffffffffffffffffffffffffffffffff1673ffffffffffffffffffffffffffffffffffffffff1681526020019081526020015f205490505f8103610324576040517f67e3990d00000000000000000000000000000000000000000000000000000000815260040160405180910390fd5b5f60065f3373ffffffffffffffffffffffffffffffffffffffff1673ffffffffffffffffffffffffffffffffffffffff1681526020019081526020015f20819055505f60035f9054906101000a900473ffffffffffffffffffffffffffffffffffffffff1673ffffffffffffffffffffffffffffffffffffffff1663a9059cbb33846040518363ffffffff1660e01b81526004016103c3929190612146565b6020604051808303815f875af11580156103df573d5f5f3e3d5ffd5b505050506040513d601f19601f820116820180604052508101906104039190612197565b90508061043c576040517f90b8ec1800000000000000000000000000000000000000000000000000000000815260040160405180910390fd5b3373ffffffffffffffffffffffffffffffffffffffff167feaff4b37086828766ad3268786972c0cd24259d4c87a80f9d3963a3c3d999b0d836040516104829190611972565b60405180910390a250506104946117e5565b565b5f5f54905090565b60035f9054906101000a900473ffffffffffffffffffffffffffffffffffffffff1681565b6104cb6117c3565b5f60055f8381526020019081526020015f2090505f60038111156104f2576104f1611d28565b5b8160050160149054906101000a900460ff16600381111561051657610515611d28565b5b1461054d576040517fbbf63c3300000000000000000000000000000000000000000000000000000000815260040160405180910390fd5b806004015f9054906101000a900473ffffffffffffffffffffffffffffffffffffffff1673ffffffffffffffffffffffffffffffffffffffff163373ffffffffffffffffffffffffffffffffffffffff16141580156105fb5750806005015f9054906101000a900473ffffffffffffffffffffffffffffffffffffffff1673ffffffffffffffffffffffffffffffffffffffff163373ffffffffffffffffffffffffffffffffffffffff1614155b15610632576040517f39fc5e0a00000000000000000000000000000000000000000000000000000000815260040160405180910390fd5b60038160050160146101000a81548160ff0219169083600381111561065a57610659611d28565b5b0217905550806002015460045f836001015481526020019081526020015f206004015f82825461068a91906121ef565b925050819055505f60035f9054906101000a900473ffffffffffffffffffffffffffffffffffffffff1673ffffffffffffffffffffffffffffffffffffffff1663a9059cbb836004015f9054906101000a900473ffffffffffffffffffffffffffffffffffffffff1684600301546040518363ffffffff1660e01b8152600401610715929190612146565b6020604051808303815f875af1158015610731573d5f5f3e3d5ffd5b505050506040513d601f19601f820116820180604052508101906107559190612197565b90508061078e576040517f90b8ec1800000000000000000000000000000000000000000000000000000000815260040160405180910390fd5b3373ffffffffffffffffffffffffffffffffffffffff167fc0362da6f2ff36b382b34aec0814f6b3cdf89f5ef282a1d1f114d0c0b036d596846040516107d49190611972565b60405180910390a250506107e66117e5565b50565b6004602052805f5260405f205f91509050805f01549080600101805461080e9061224f565b80601f016020809104026020016040519081016040528092919081815260200182805461083a9061224f565b80156108855780601f1061085c57610100808354040283529160200191610885565b820191905f5260205f20905b81548152906001019060200180831161086857829003601f168201915b50505050509080600201805461089a9061224f565b80601f01602080910402602001604051908101604052809291908181526020018280546108c69061224f565b80156109115780601f106108e857610100808354040283529160200191610911565b820191905f5260205f20905b8154815290600101906020018083116108f457829003601f168201915b5050505050908060030154908060040154908060050180546109329061224f565b80601f016020809104026020016040519081016040528092919081815260200182805461095e9061224f565b80156109a95780601f10610980576101008083540402835291602001916109a9565b820191905f5260205f20905b81548152906001019060200180831161098c57829003601f168201915b505050505090806006015f9054906101000a900473ffffffffffffffffffffffffffffffffffffffff16908060060160149054906101000a900460ff16905088565b6109f36117c3565b5f60055f8381526020019081526020015f2090503373ffffffffffffffffffffffffffffffffffffffff16816004015f9054906101000a900473ffffffffffffffffffffffffffffffffffffffff1673ffffffffffffffffffffffffffffffffffffffff1614610a8f576040517f86efbb5500000000000000000000000000000000000000000000000000000000815260040160405180910390fd5b5f6003811115610aa257610aa1611d28565b5b8160050160149054906101000a900460ff166003811115610ac657610ac5611d28565b5b14610afd576040517fba25494600000000000000000000000000000000000000000000000000000000815260040160405180910390fd5b60028160050160146101000a81548160ff02191690836003811115610b2557610b24611d28565b5b0217905550806003015460065f836005015f9054906101000a900473ffffffffffffffffffffffffffffffffffffffff1673ffffffffffffffffffffffffffffffffffffffff1673ffffffffffffffffffffffffffffffffffffffff1681526020019081526020015f205f828254610b9d91906121ef565b92505081905550806005015f9054906101000a900473ffffffffffffffffffffffffffffffffffffffff1673ffffffffffffffffffffffffffffffffffffffff167fd9153bed9da362a771596f693014f5226ba4b890b57155e405c1d3b58b180aaf838360030154604051610c1392919061227f565b60405180910390a250610c246117e5565b50565b610c2f61188e565b60045f8381526020019081526020015f20604051806101000160405290815f8201548152602001600182018054610c659061224f565b80601f0160208091040260200160405190810160405280929190818152602001828054610c919061224f565b8015610cdc5780601f10610cb357610100808354040283529160200191610cdc565b820191905f5260205f20905b815481529060010190602001808311610cbf57829003601f168201915b50505050508152602001600282018054610cf59061224f565b80601f0160208091040260200160405190810160405280929190818152602001828054610d219061224f565b8015610d6c5780601f10610d4357610100808354040283529160200191610d6c565b820191905f5260205f20905b815481529060010190602001808311610d4f57829003601f168201915b505050505081526020016003820154815260200160048201548152602001600582018054610d999061224f565b80601f0160208091040260200160405190810160405280929190818152602001828054610dc59061224f565b8015610e105780601f10610de757610100808354040283529160200191610e10565b820191905f5260205f20905b815481529060010190602001808311610df357829003601f168201915b50505050508152602001600682015f9054906101000a900473ffffffffffffffffffffffffffffffffffffffff1673ffffffffffffffffffffffffffffffffffffffff1673ffffffffffffffffffffffffffffffffffffffff1681526020016006820160149054906101000a900460ff1615151515815250509050919050565b60025f9054906101000a900473ffffffffffffffffffffffffffffffffffffffff1681565b6005602052805f5260405f205f91509050805f015490806001015490806002015490806003015490806004015f9054906101000a900473ffffffffffffffffffffffffffffffffffffffff1690806005015f9054906101000a900473ffffffffffffffffffffffffffffffffffffffff16908060050160149054906101000a900460ff16905087565b610f466118e6565b60055f8381526020019081526020015f206040518060e00160405290815f8201548152602001600182015481526020016002820154815260200160038201548152602001600482015f9054906101000a900473ffffffffffffffffffffffffffffffffffffffff1673ffffffffffffffffffffffffffffffffffffffff1673ffffffffffffffffffffffffffffffffffffffff168152602001600582015f9054906101000a900473ffffffffffffffffffffffffffffffffffffffff1673ffffffffffffffffffffffffffffffffffffffff1673ffffffffffffffffffffffffffffffffffffffff1681526020016005820160149054906101000a900460ff16600381111561105857611057611d28565b5b600381111561106a57611069611d28565b5b815250509050919050565b61107d6117c3565b338073ffffffffffffffffffffffffffffffffffffffff163373ffffffffffffffffffffffffffffffffffffffff16146110e3576040517f85d1f72600000000000000000000000000000000000000000000000000000000815260040160405180910390fd5b5f840361111c576040517f23a3620900000000000000000000000000000000000000000000000000000000815260040160405180910390fd5b5f8303611155576040517f0cdcd02000000000000000000000000000000000000000000000000000000000815260040160405180910390fd5b5f5f815480929190611166906122a6565b91905055505f5f5490506040518061010001604052808281526020018881526020018781526020018681526020018581526020018481526020013373ffffffffffffffffffffffffffffffffffffffff1681526020016001151581525060045f8381526020019081526020015f205f820151815f015560208201518160010190816111f19190612484565b5060408201518160020190816112079190612484565b50606082015181600301556080820151816004015560a08201518160050190816112319190612484565b5060c0820151816006015f6101000a81548173ffffffffffffffffffffffffffffffffffffffff021916908373ffffffffffffffffffffffffffffffffffffffff16021790555060e08201518160060160146101000a81548160ff0219169083151502179055509050503373ffffffffffffffffffffffffffffffffffffffff167faabe6418c3df3010391192b98bc7e98e104916ba92cc638472e9304f2502a7a5828988886040516112e79493929190612553565b60405180910390a250506112f96117e5565b5050505050565b6113086117c3565b5f60045f8481526020019081526020015f2090508060060160149054906101000a900460ff16611364576040517f77c3782b00000000000000000000000000000000000000000000000000000000815260040160405180910390fd5b81816004015410156113a2576040517f6e90797800000000000000000000000000000000000000000000000000000000815260040160405180910390fd5b5f8282600301546113b3919061259d565b90508060035f9054906101000a900473ffffffffffffffffffffffffffffffffffffffff1673ffffffffffffffffffffffffffffffffffffffff1663dd62ed3e33306040518363ffffffff1660e01b81526004016114129291906125de565b602060405180830381865afa15801561142d573d5f5f3e3d5ffd5b505050506040513d601f19601f820116820180604052508101906114519190612619565b1015611489576040517f13be252b00000000000000000000000000000000000000000000000000000000815260040160405180910390fd5b5f60035f9054906101000a900473ffffffffffffffffffffffffffffffffffffffff1673ffffffffffffffffffffffffffffffffffffffff166323b872dd3330856040518463ffffffff1660e01b81526004016114e893929190612644565b6020604051808303815f875af1158015611504573d5f5f3e3d5ffd5b505050506040513d601f19601f820116820180604052508101906115289190612197565b905080611561576040517f90b8ec1800000000000000000000000000000000000000000000000000000000815260040160405180910390fd5b60015f815480929190611573906122a6565b91905055505f60015490506040518060e001604052808281526020018781526020018681526020018481526020013373ffffffffffffffffffffffffffffffffffffffff168152602001856006015f9054906101000a900473ffffffffffffffffffffffffffffffffffffffff1673ffffffffffffffffffffffffffffffffffffffff1681526020015f600381111561160f5761160e611d28565b5b81525060055f8381526020019081526020015f205f820151815f01556020820151816001015560408201518160020155606082015181600301556080820151816004015f6101000a81548173ffffffffffffffffffffffffffffffffffffffff021916908373ffffffffffffffffffffffffffffffffffffffff16021790555060a0820151816005015f6101000a81548173ffffffffffffffffffffffffffffffffffffffff021916908373ffffffffffffffffffffffffffffffffffffffff16021790555060c08201518160050160146101000a81548160ff02191690836003811115611700576116ff611d28565b5b021790555090505084846004015f82825461171b9190612679565b925050819055505f84600401540361174a575f8460060160146101000a81548160ff0219169083151502179055505b3373ffffffffffffffffffffffffffffffffffffffff167fb4c221ddd7609db60a539b6ffa1d89b1a29cd0ab3c29c0a8ffc16bfdb6a51c218288888760405161179694939291906126ac565b60405180910390a2505050506117aa6117e5565b5050565b6006602052805f5260405f205f915090505481565b6117cb6117ff565b60026117dd6117d8611840565b611869565b5f0181905550565b60016117f76117f2611840565b611869565b5f0181905550565b611807611872565b1561183e576040517f3ee5aeb500000000000000000000000000000000000000000000000000000000815260040160405180910390fd5b565b5f7f9b779b17422d0df92223018b32b4d1fa46e071723d6817e2486d003becc55f005f1b905090565b5f819050919050565b5f6002611885611880611840565b611869565b5f015414905090565b6040518061010001604052805f815260200160608152602001606081526020015f81526020015f8152602001606081526020015f73ffffffffffffffffffffffffffffffffffffffff1681526020015f151581525090565b6040518060e001604052805f81526020015f81526020015f81526020015f81526020015f73ffffffffffffffffffffffffffffffffffffffff1681526020015f73ffffffffffffffffffffffffffffffffffffffff1681526020015f600381111561195457611953611d28565b5b81525090565b5f819050919050565b61196c8161195a565b82525050565b5f6020820190506119855f830184611963565b92915050565b5f73ffffffffffffffffffffffffffffffffffffffff82169050919050565b5f819050919050565b5f6119cd6119c86119c38461198b565b6119aa565b61198b565b9050919050565b5f6119de826119b3565b9050919050565b5f6119ef826119d4565b9050919050565b6119ff816119e5565b82525050565b5f602082019050611a185f8301846119f6565b92915050565b5f604051905090565b5f5ffd5b5f5ffd5b611a388161195a565b8114611a42575f5ffd5b50565b5f81359050611a5381611a2f565b92915050565b5f60208284031215611a6e57611a6d611a27565b5b5f611a7b84828501611a45565b91505092915050565b5f81519050919050565b5f82825260208201905092915050565b8281835e5f83830152505050565b5f601f19601f8301169050919050565b5f611ac682611a84565b611ad08185611a8e565b9350611ae0818560208601611a9e565b611ae981611aac565b840191505092915050565b5f611afe8261198b565b9050919050565b611b0e81611af4565b82525050565b5f8115159050919050565b611b2881611b14565b82525050565b5f61010082019050611b425f83018b611963565b8181036020830152611b54818a611abc565b90508181036040830152611b688189611abc565b9050611b776060830188611963565b611b846080830187611963565b81810360a0830152611b968186611abc565b9050611ba560c0830185611b05565b611bb260e0830184611b1f565b9998505050505050505050565b611bc88161195a565b82525050565b5f82825260208201905092915050565b5f611be882611a84565b611bf28185611bce565b9350611c02818560208601611a9e565b611c0b81611aac565b840191505092915050565b611c1f81611af4565b82525050565b611c2e81611b14565b82525050565b5f61010083015f830151611c4a5f860182611bbf565b5060208301518482036020860152611c628282611bde565b91505060408301518482036040860152611c7c8282611bde565b9150506060830151611c916060860182611bbf565b506080830151611ca46080860182611bbf565b5060a083015184820360a0860152611cbc8282611bde565b91505060c0830151611cd160c0860182611c16565b5060e0830151611ce460e0860182611c25565b508091505092915050565b5f6020820190508181035f830152611d078184611c34565b905092915050565b5f602082019050611d225f830184611b05565b92915050565b7f4e487b71000000000000000000000000000000000000000000000000000000005f52602160045260245ffd5b60048110611d6657611d65611d28565b5b50565b5f819050611d7682611d55565b919050565b5f611d8582611d69565b9050919050565b611d9581611d7b565b82525050565b5f60e082019050611dae5f83018a611963565b611dbb6020830189611963565b611dc86040830188611963565b611dd56060830187611963565b611de26080830186611b05565b611def60a0830185611b05565b611dfc60c0830184611d8c565b98975050505050505050565b611e1181611d7b565b82525050565b60e082015f820151611e2b5f850182611bbf565b506020820151611e3e6020850182611bbf565b506040820151611e516040850182611bbf565b506060820151611e646060850182611bbf565b506080820151611e776080850182611c16565b5060a0820151611e8a60a0850182611c16565b5060c0820151611e9d60c0850182611e08565b50505050565b5f60e082019050611eb65f830184611e17565b92915050565b5f5ffd5b5f5ffd5b7f4e487b71000000000000000000000000000000000000000000000000000000005f52604160045260245ffd5b611efa82611aac565b810181811067ffffffffffffffff82111715611f1957611f18611ec4565b5b80604052505050565b5f611f2b611a1e565b9050611f378282611ef1565b919050565b5f67ffffffffffffffff821115611f5657611f55611ec4565b5b611f5f82611aac565b9050602081019050919050565b828183375f83830152505050565b5f611f8c611f8784611f3c565b611f22565b905082815260208101848484011115611fa857611fa7611ec0565b5b611fb3848285611f6c565b509392505050565b5f82601f830112611fcf57611fce611ebc565b5b8135611fdf848260208601611f7a565b91505092915050565b5f5f5f5f5f60a0868803121561200157612000611a27565b5b5f86013567ffffffffffffffff81111561201e5761201d611a2b565b5b61202a88828901611fbb565b955050602086013567ffffffffffffffff81111561204b5761204a611a2b565b5b61205788828901611fbb565b945050604061206888828901611a45565b935050606061207988828901611a45565b925050608086013567ffffffffffffffff81111561209a57612099611a2b565b5b6120a688828901611fbb565b9150509295509295909350565b5f5f604083850312156120c9576120c8611a27565b5b5f6120d685828601611a45565b92505060206120e785828601611a45565b9150509250929050565b6120fa81611af4565b8114612104575f5ffd5b50565b5f81359050612115816120f1565b92915050565b5f602082840312156121305761212f611a27565b5b5f61213d84828501612107565b91505092915050565b5f6040820190506121595f830185611b05565b6121666020830184611963565b9392505050565b61217681611b14565b8114612180575f5ffd5b50565b5f815190506121918161216d565b92915050565b5f602082840312156121ac576121ab611a27565b5b5f6121b984828501612183565b91505092915050565b7f4e487b71000000000000000000000000000000000000000000000000000000005f52601160045260245ffd5b5f6121f98261195a565b91506122048361195a565b925082820190508082111561221c5761221b6121c2565b5b92915050565b7f4e487b71000000000000000000000000000000000000000000000000000000005f52602260045260245ffd5b5f600282049050600182168061226657607f821691505b60208210810361227957612278612222565b5b50919050565b5f6040820190506122925f830185611963565b61229f6020830184611963565b9392505050565b5f6122b08261195a565b91507fffffffffffffffffffffffffffffffffffffffffffffffffffffffffffffffff82036122e2576122e16121c2565b5b600182019050919050565b5f819050815f5260205f209050919050565b5f6020601f8301049050919050565b5f82821b905092915050565b5f600883026123497fffffffffffffffffffffffffffffffffffffffffffffffffffffffffffffffff8261230e565b612353868361230e565b95508019841693508086168417925050509392505050565b5f61238561238061237b8461195a565b6119aa565b61195a565b9050919050565b5f819050919050565b61239e8361236b565b6123b26123aa8261238c565b84845461231a565b825550505050565b5f5f905090565b6123c96123ba565b6123d4818484612395565b505050565b5b818110156123f7576123ec5f826123c1565b6001810190506123da565b5050565b601f82111561243c5761240d816122ed565b612416846122ff565b81016020851015612425578190505b612439612431856122ff565b8301826123d9565b50505b505050565b5f82821c905092915050565b5f61245c5f1984600802612441565b1980831691505092915050565b5f612474838361244d565b9150826002028217905092915050565b61248d82611a84565b67ffffffffffffffff8111156124a6576124a5611ec4565b5b6124b0825461224f565b6124bb8282856123fb565b5f60209050601f8311600181146124ec575f84156124da578287015190505b6124e48582612469565b86555061254b565b601f1984166124fa866122ed565b5f5b82811015612521578489015182556001820191506020850194506020810190506124fc565b8683101561253e578489015161253a601f89168261244d565b8355505b6001600288020188555050505b505050505050565b5f6080820190506125665f830187611963565b81810360208301526125788186611abc565b90506125876040830185611963565b6125946060830184611963565b95945050505050565b5f6125a78261195a565b91506125b28361195a565b92508282026125c08161195a565b915082820484148315176125d7576125d66121c2565b5b5092915050565b5f6040820190506125f15f830185611b05565b6125fe6020830184611b05565b9392505050565b5f8151905061261381611a2f565b92915050565b5f6020828403121561262e5761262d611a27565b5b5f61263b84828501612605565b91505092915050565b5f6060820190506126575f830186611b05565b6126646020830185611b05565b6126716040830184611963565b949350505050565b5f6126838261195a565b915061268e8361195a565b92508282039050818111156126a6576126a56121c2565b5b92915050565b5f6080820190506126bf5f830187611963565b6126cc6020830186611963565b6126d96040830185611963565b6126e66060830184611963565b9594505050505056fea26469706673582212202214d100b99470a39dbe5504dd108c83c86a49bbdbade228f31202c0d59a1ee064736f6c634300081e0033",
    "linkReferences": {}
  },
  "methodIdentifiers": {
    "cancelOrder(uint256)": "514fcac7",
    "confirmOrder(uint256)": "8ac7d79c",
    "crops(uint256)": "70c9f1a5",
    "getCrop(uint256)": "8bc7fa9c",
    "getOrder(uint256)": "d09ef241",
    "listCrop(string,string,uint256,uint256,string)": "e20d7479",
    "orders(uint256)": "a85c38ef",
    "owner()": "8da5cb5b",
    "paymentToken()": "3013ce29",
    "purchaseCrop(uint256,uint256)": "f61f0950",
    "sellerFunds(address)": "f9ff091e",
    "totalCrops()": "2acc7847",
    "withdrawFunds()": "24600fc3"
  },
  "id": 26
}